{
  "contractName": "CryptoCars",
  "abi": [
    {
      "constant": true,
      "inputs": [
        {
          "name": "",
          "type": "address"
        }
      ],
      "name": "carOwners",
      "outputs": [
        {
          "name": "name",
          "type": "string"
        },
        {
          "name": "addr",
          "type": "address"
        }
      ],
      "payable": false,
      "stateMutability": "view",
      "type": "function"
    },
    {
      "constant": true,
      "inputs": [
        {
          "name": "",
          "type": "address"
        },
        {
          "name": "",
          "type": "uint256"
        }
      ],
      "name": "carOwnerCars",
      "outputs": [
        {
          "name": "brand",
          "type": "string"
        },
        {
          "name": "model",
          "type": "string"
        },
        {
          "name": "manufacturerPrice",
          "type": "uint256"
        },
        {
          "name": "salePrice",
          "type": "uint256"
        },
        {
          "name": "pictureHash",
          "type": "bytes32"
        }
      ],
      "payable": false,
      "stateMutability": "view",
      "type": "function"
    },
    {
      "constant": false,
      "inputs": [],
      "name": "renounceOwnership",
      "outputs": [],
      "payable": false,
      "stateMutability": "nonpayable",
      "type": "function"
    },
    {
      "constant": true,
      "inputs": [],
      "name": "owner",
      "outputs": [
        {
          "name": "",
          "type": "address"
        }
      ],
      "payable": false,
      "stateMutability": "view",
      "type": "function"
    },
    {
      "constant": true,
      "inputs": [
        {
          "name": "",
          "type": "address"
        }
      ],
      "name": "carOwnerMoneySpent",
      "outputs": [
        {
          "name": "",
          "type": "uint256"
        }
      ],
      "payable": false,
      "stateMutability": "view",
      "type": "function"
    },
    {
      "constant": true,
      "inputs": [],
      "name": "cryptoCarsToken",
      "outputs": [
        {
          "name": "",
          "type": "address"
        }
      ],
      "payable": false,
      "stateMutability": "view",
      "type": "function"
    },
    {
      "constant": false,
      "inputs": [
        {
          "name": "_newOwner",
          "type": "address"
        }
      ],
      "name": "transferOwnership",
      "outputs": [],
      "payable": false,
      "stateMutability": "nonpayable",
      "type": "function"
    },
    {
      "inputs": [
        {
          "name": "_cryptoCarsTokenContract",
          "type": "address"
        }
      ],
      "payable": false,
      "stateMutability": "nonpayable",
      "type": "constructor"
    },
    {
      "anonymous": false,
      "inputs": [
        {
          "indexed": true,
          "name": "carDealer",
          "type": "string"
        },
        {
          "indexed": true,
          "name": "owner",
          "type": "address"
        }
      ],
      "name": "CreatedCarDealer",
      "type": "event"
    },
    {
      "anonymous": false,
      "inputs": [
        {
          "indexed": true,
          "name": "carOwner",
          "type": "address"
        },
        {
          "indexed": false,
          "name": "name",
          "type": "string"
        }
      ],
      "name": "CreatedCarOwner",
      "type": "event"
    },
    {
      "anonymous": false,
      "inputs": [
        {
          "indexed": true,
          "name": "carDealer",
          "type": "string"
        },
        {
          "indexed": true,
          "name": "brand",
          "type": "string"
        },
        {
          "indexed": true,
          "name": "model",
          "type": "string"
        },
        {
          "indexed": false,
          "name": "salePrice",
          "type": "uint256"
        }
      ],
      "name": "AddedCarToDealer",
      "type": "event"
    },
    {
      "anonymous": false,
      "inputs": [
        {
          "indexed": true,
          "name": "carDealer",
          "type": "string"
        },
        {
          "indexed": false,
          "name": "model",
          "type": "string"
        },
        {
          "indexed": false,
          "name": "brand",
          "type": "string"
        },
        {
          "indexed": false,
          "name": "boughtPrice",
          "type": "uint256"
        }
      ],
      "name": "BoughtCarFromDealer",
      "type": "event"
    },
    {
      "anonymous": false,
      "inputs": [
        {
          "indexed": true,
          "name": "carOwner",
          "type": "address"
        },
        {
          "indexed": false,
          "name": "model",
          "type": "string"
        },
        {
          "indexed": false,
          "name": "brand",
          "type": "string"
        },
        {
          "indexed": false,
          "name": "boughtPrice",
          "type": "uint256"
        }
      ],
      "name": "BoughtCarFromOwner",
      "type": "event"
    },
    {
      "anonymous": false,
      "inputs": [
        {
          "indexed": true,
          "name": "carDealerAddress",
          "type": "address"
        },
        {
          "indexed": true,
          "name": "carDealer",
          "type": "string"
        },
        {
          "indexed": false,
          "name": "brand",
          "type": "string"
        },
        {
          "indexed": false,
          "name": "model",
          "type": "string"
        }
      ],
      "name": "RemovedCarFromDealer",
      "type": "event"
    },
    {
      "anonymous": false,
      "inputs": [
        {
          "indexed": true,
          "name": "carOwnerAddress",
          "type": "address"
        },
        {
          "indexed": false,
          "name": "brand",
          "type": "string"
        },
        {
          "indexed": false,
          "name": "model",
          "type": "string"
        }
      ],
      "name": "RemovedCarFromDealer",
      "type": "event"
    },
    {
      "anonymous": false,
      "inputs": [
        {
          "indexed": false,
          "name": "amount",
          "type": "uint256"
        },
        {
          "indexed": false,
          "name": "timestamp",
          "type": "uint256"
        }
      ],
      "name": "Withdrawal",
      "type": "event"
    },
    {
      "anonymous": false,
      "inputs": [
        {
          "indexed": true,
          "name": "previousOwner",
          "type": "address"
        }
      ],
      "name": "OwnershipRenounced",
      "type": "event"
    },
    {
      "anonymous": false,
      "inputs": [
        {
          "indexed": true,
          "name": "previousOwner",
          "type": "address"
        },
        {
          "indexed": true,
          "name": "newOwner",
          "type": "address"
        }
      ],
      "name": "OwnershipTransferred",
      "type": "event"
    },
    {
      "constant": false,
      "inputs": [
        {
          "name": "_name",
          "type": "string"
        }
      ],
      "name": "createCarDealer",
      "outputs": [],
      "payable": false,
      "stateMutability": "nonpayable",
      "type": "function"
    },
    {
      "constant": false,
      "inputs": [
        {
          "name": "_carDealer",
          "type": "string"
        },
        {
          "name": "_brand",
          "type": "string"
        },
        {
          "name": "_model",
          "type": "string"
        },
        {
          "name": "_manufacturerPrice",
          "type": "uint256"
        },
        {
          "name": "_salePrice",
          "type": "uint256"
        },
        {
          "name": "_pictureHash",
          "type": "bytes32"
        }
      ],
      "name": "addCarToDealer",
      "outputs": [],
      "payable": false,
      "stateMutability": "nonpayable",
      "type": "function"
    },
    {
      "constant": true,
      "inputs": [
        {
          "name": "_carDealer",
          "type": "string"
        }
      ],
      "name": "getCarDealerAddress",
      "outputs": [
        {
          "name": "",
          "type": "address"
        }
      ],
      "payable": false,
      "stateMutability": "view",
      "type": "function"
    },
    {
      "constant": true,
      "inputs": [
        {
          "name": "_carDealer",
          "type": "string"
        },
        {
          "name": "_brand",
          "type": "string"
        },
        {
          "name": "_model",
          "type": "string"
        }
      ],
      "name": "getCarByDealer",
      "outputs": [
        {
          "name": "brand",
          "type": "string"
        },
        {
          "name": "model",
          "type": "string"
        },
        {
          "name": "manufacturerPrice",
          "type": "uint256"
        },
        {
          "name": "salePrice",
          "type": "uint256"
        },
        {
          "name": "pictureHash",
          "type": "bytes32"
        }
      ],
      "payable": false,
      "stateMutability": "view",
      "type": "function"
    },
    {
      "constant": true,
      "inputs": [
        {
          "name": "_carOwner",
          "type": "address"
        },
        {
          "name": "_brand",
          "type": "string"
        },
        {
          "name": "_model",
          "type": "string"
        }
      ],
      "name": "getCarByOwner",
      "outputs": [
        {
          "name": "brand",
          "type": "string"
        },
        {
          "name": "model",
          "type": "string"
        },
        {
          "name": "manufacturerPrice",
          "type": "uint256"
        },
        {
          "name": "salePrice",
          "type": "uint256"
        },
        {
          "name": "pictureHash",
          "type": "bytes32"
        }
      ],
      "payable": false,
      "stateMutability": "view",
      "type": "function"
    },
    {
      "constant": true,
      "inputs": [
        {
          "name": "_carOwner",
          "type": "address"
        }
      ],
      "name": "getCarOwnerCarsNumber",
      "outputs": [
        {
          "name": "",
          "type": "uint256"
        }
      ],
      "payable": false,
      "stateMutability": "view",
      "type": "function"
    },
    {
      "constant": false,
      "inputs": [
        {
          "name": "_carDealerAddress",
          "type": "address"
        },
        {
          "name": "_carDealer",
          "type": "string"
        },
        {
          "name": "_brand",
          "type": "string"
        },
        {
          "name": "_model",
          "type": "string"
        },
        {
          "name": "_buyerName",
          "type": "string"
        },
        {
          "name": "tokens",
          "type": "uint256"
        }
      ],
      "name": "buyCarFromDealer",
      "outputs": [],
      "payable": false,
      "stateMutability": "nonpayable",
      "type": "function"
    },
    {
      "constant": false,
      "inputs": [
        {
          "name": "_carOwnerAddress",
          "type": "address"
        },
        {
          "name": "_brand",
          "type": "string"
        },
        {
          "name": "_model",
          "type": "string"
        },
        {
          "name": "_buyerName",
          "type": "string"
        },
        {
          "name": "tokens",
          "type": "uint256"
        }
      ],
      "name": "buyCarFromOwner",
      "outputs": [],
      "payable": false,
      "stateMutability": "nonpayable",
      "type": "function"
    },
    {
      "constant": false,
      "inputs": [],
      "name": "withdraw",
      "outputs": [],
      "payable": false,
      "stateMutability": "nonpayable",
      "type": "function"
    }
  ],
  "bytecode": "0x608060405234801561001057600080fd5b5060405160208061482b83398101806040528101908080519060200190929190505050336000806101000a81548173ffffffffffffffffffffffffffffffffffffffff021916908373ffffffffffffffffffffffffffffffffffffffff16021790555080600160006101000a81548173ffffffffffffffffffffffffffffffffffffffff021916908373ffffffffffffffffffffffffffffffffffffffff16021790555050614767806100c46000396000f3006080604052600436106100e6576000357c0100000000000000000000000000000000000000000000000000000000900463ffffffff168063052e43eb146100eb57806326a453cb146102e25780632ec7c32e146104475780633ccfd60b1461061857806340ab498e1461062f57806349f6136b1461071e578063578198441461086d57806367d7e2d91461098c578063715018a614610aa357806388efd79514610aba5780638da5cb5b14610b63578063970d118e14610bba578063b5bcc91a14610c23578063d8f2ae4514610c7a578063e6fc4a7214610cd1578063f2fde38b14610d28575b600080fd5b3480156100f757600080fd5b506101de600480360381019080803590602001908201803590602001908080601f0160208091040260200160405190810160405280939291908181526020018383808284378201915050505050509192919290803590602001908201803590602001908080601f0160208091040260200160405190810160405280939291908181526020018383808284378201915050505050509192919290803590602001908201803590602001908080601f0160208091040260200160405190810160405280939291908181526020018383808284378201915050505050509192919290505050610d6b565b6040518080602001806020018681526020018581526020018460001916600019168152602001838103835288818151815260200191508051906020019080838360005b8381101561023c578082015181840152602081019050610221565b50505050905090810190601f1680156102695780820380516001836020036101000a031916815260200191505b50838103825287818151815260200191508051906020019080838360005b838110156102a2578082015181840152602081019050610287565b50505050905090810190601f1680156102cf5780820380516001836020036101000a031916815260200191505b5097505050505050505060405180910390f35b3480156102ee57600080fd5b50610445600480360381019080803573ffffffffffffffffffffffffffffffffffffffff169060200190929190803590602001908201803590602001908080601f0160208091040260200160405190810160405280939291908181526020018383808284378201915050505050509192919290803590602001908201803590602001908080601f0160208091040260200160405190810160405280939291908181526020018383808284378201915050505050509192919290803590602001908201803590602001908080601f0160208091040260200160405190810160405280939291908181526020018383808284378201915050505050509192919290803590602001908201803590602001908080601f01602080910402602001604051908101604052809392919081815260200183838082843782019150505050505091929192908035906020019092919050505061107d565b005b34801561045357600080fd5b50610514600480360381019080803573ffffffffffffffffffffffffffffffffffffffff169060200190929190803590602001908201803590602001908080601f0160208091040260200160405190810160405280939291908181526020018383808284378201915050505050509192919290803590602001908201803590602001908080601f01602080910402602001604051908101604052809392919081815260200183838082843782019150505050505091929192905050506119d8565b6040518080602001806020018681526020018581526020018460001916600019168152602001838103835288818151815260200191508051906020019080838360005b83811015610572578082015181840152602081019050610557565b50505050905090810190601f16801561059f5780820380516001836020036101000a031916815260200191505b50838103825287818151815260200191508051906020019080838360005b838110156105d85780820151818401526020810190506105bd565b50505050905090810190601f1680156106055780820380516001836020036101000a031916815260200191505b5097505050505050505060405180910390f35b34801561062457600080fd5b5061062d611cac565b005b34801561063b57600080fd5b50610670600480360381019080803573ffffffffffffffffffffffffffffffffffffffff169060200190929190505050611f4a565b60405180806020018373ffffffffffffffffffffffffffffffffffffffff1673ffffffffffffffffffffffffffffffffffffffff168152602001828103825284818151815260200191508051906020019080838360005b838110156106e25780820151818401526020810190506106c7565b50505050905090810190601f16801561070f5780820380516001836020036101000a031916815260200191505b50935050505060405180910390f35b34801561072a57600080fd5b50610769600480360381019080803573ffffffffffffffffffffffffffffffffffffffff16906020019092919080359060200190929190505050612026565b6040518080602001806020018681526020018581526020018460001916600019168152602001838103835288818151815260200191508051906020019080838360005b838110156107c75780820151818401526020810190506107ac565b50505050905090810190601f1680156107f45780820380516001836020036101000a031916815260200191505b50838103825287818151815260200191508051906020019080838360005b8381101561082d578082015181840152602081019050610812565b50505050905090810190601f16801561085a5780820380516001836020036101000a031916815260200191505b5097505050505050505060405180910390f35b34801561087957600080fd5b5061098a600480360381019080803573ffffffffffffffffffffffffffffffffffffffff169060200190929190803590602001908201803590602001908080601f0160208091040260200160405190810160405280939291908181526020018383808284378201915050505050509192919290803590602001908201803590602001908080601f0160208091040260200160405190810160405280939291908181526020018383808284378201915050505050509192919290803590602001908201803590602001908080601f0160208091040260200160405190810160405280939291908181526020018383808284378201915050505050509192919290803590602001909291905050506121a8565b005b34801561099857600080fd5b50610aa1600480360381019080803590602001908201803590602001908080601f0160208091040260200160405190810160405280939291908181526020018383808284378201915050505050509192919290803590602001908201803590602001908080601f0160208091040260200160405190810160405280939291908181526020018383808284378201915050505050509192919290803590602001908201803590602001908080601f016020809104026020016040519081016040528093929190818152602001838380828437820191505050505050919291929080359060200190929190803590602001909291908035600019169060200190929190505050612ae5565b005b348015610aaf57600080fd5b50610ab8612f9b565b005b348015610ac657600080fd5b50610b21600480360381019080803590602001908201803590602001908080601f016020809104026020016040519081016040528093929190818152602001838380828437820191505050505050919291929050505061309d565b604051808273ffffffffffffffffffffffffffffffffffffffff1673ffffffffffffffffffffffffffffffffffffffff16815260200191505060405180910390f35b348015610b6f57600080fd5b50610b78613147565b604051808273ffffffffffffffffffffffffffffffffffffffff1673ffffffffffffffffffffffffffffffffffffffff16815260200191505060405180910390f35b348015610bc657600080fd5b50610c21600480360381019080803590602001908201803590602001908080601f016020809104026020016040519081016040528093929190818152602001838380828437820191505050505050919291929050505061316c565b005b348015610c2f57600080fd5b50610c64600480360381019080803573ffffffffffffffffffffffffffffffffffffffff169060200190929190505050613324565b6040518082815260200191505060405180910390f35b348015610c8657600080fd5b50610cbb600480360381019080803573ffffffffffffffffffffffffffffffffffffffff16906020019092919050505061333c565b6040518082815260200191505060405180910390f35b348015610cdd57600080fd5b50610ce6613388565b604051808273ffffffffffffffffffffffffffffffffffffffff1673ffffffffffffffffffffffffffffffffffffffff16815260200191505060405180910390f35b348015610d3457600080fd5b50610d69600480360381019080803573ffffffffffffffffffffffffffffffffffffffff1690602001909291905050506133ae565b005b606080600080600080610d7c61461b565b600260008b6040518082805190602001908083835b602083101515610db65780518252602082019150602081019050602083039250610d91565b6001836020036101000a03801982511681845116808217855250505050505090500191505060405180910390206000191660001916815260200190815260200160002091508160020160008a8a6040518083805190602001908083835b602083101515610e385780518252602082019150602081019050602083039250610e13565b6001836020036101000a03801982511681845116808217855250505050505090500182805190602001908083835b602083101515610e8b5780518252602082019150602081019050602083039250610e66565b6001836020036101000a0380198251168184511680821785525050505050509050019250505060405180910390206000191660001916815260200190815260200160002060a06040519081016040529081600082018054600181600116156101000203166002900480601f016020809104026020016040519081016040528092919081815260200182805460018160011615610100020316600290048015610f745780601f10610f4957610100808354040283529160200191610f74565b820191906000526020600020905b815481529060010190602001808311610f5757829003601f168201915b50505050508152602001600182018054600181600116156101000203166002900480601f0160208091040260200160405190810160405280929190818152602001828054600181600116156101000203166002900480156110165780601f10610feb57610100808354040283529160200191611016565b820191906000526020600020905b815481529060010190602001808311610ff957829003601f168201915b5050505050815260200160028201548152602001600382015481526020016004820154600019166000191681525050905080600001518160200151826040015183606001518460800151849450839350965096509650965096505050939792965093509350565b600061108761461b565b6000806000600260008b6040518082805190602001908083835b6020831015156110c657805182526020820191506020810190506020830392506110a1565b6001836020036101000a03801982511681845116808217855250505050505090500191505060405180910390206000191660001916815260200190815260200160002094508460020160008a8a6040518083805190602001908083835b6020831015156111485780518252602082019150602081019050602083039250611123565b6001836020036101000a03801982511681845116808217855250505050505090500182805190602001908083835b60208310151561119b5780518252602082019150602081019050602083039250611176565b6001836020036101000a0380198251168184511680821785525050505050509050019250505060405180910390206000191660001916815260200190815260200160002060a06040519081016040529081600082018054600181600116156101000203166002900480601f0160208091040260200160405190810160405280929190818152602001828054600181600116156101000203166002900480156112845780601f1061125957610100808354040283529160200191611284565b820191906000526020600020905b81548152906001019060200180831161126757829003601f168201915b50505050508152602001600182018054600181600116156101000203166002900480601f0160208091040260200160405190810160405280929190818152602001828054600181600116156101000203166002900480156113265780601f106112fb57610100808354040283529160200191611326565b820191906000526020600020905b81548152906001019060200180831161130957829003601f168201915b505050505081526020016002820154815260200160038201548152602001600482015460001916600019168152505093508a73ffffffffffffffffffffffffffffffffffffffff168560010160009054906101000a900473ffffffffffffffffffffffffffffffffffffffff1673ffffffffffffffffffffffffffffffffffffffff161415156113b557600080fd5b88886040518083805190602001908083835b6020831015156113ec57805182526020820191506020810190506020830392506113c7565b6001836020036101000a03801982511681845116808217855250505050505090500182805190602001908083835b60208310151561143f578051825260208201915060208101905060208303925061141a565b6001836020036101000a03801982511681845116808217855250505050505090500192505050604051809103902060001916846000015185602001516040518083805190602001908083835b6020831015156114b0578051825260208201915060208101905060208303925061148b565b6001836020036101000a03801982511681845116808217855250505050505090500182805190602001908083835b60208310151561150357805182526020820191506020810190506020830392506114de565b6001836020036101000a0380198251168184511680821785525050505050509050019250505060405180910390206000191614151561154157600080fd5b83606001518614151561155357600080fd5b61157a606461156c60328961341590919063ffffffff16565b61344d90919063ffffffff16565b9250339150600160009054906101000a900473ffffffffffffffffffffffffffffffffffffffff1673ffffffffffffffffffffffffffffffffffffffff166323b872dd8330866040518463ffffffff167c0100000000000000000000000000000000000000000000000000000000028152600401808473ffffffffffffffffffffffffffffffffffffffff1673ffffffffffffffffffffffffffffffffffffffff1681526020018373ffffffffffffffffffffffffffffffffffffffff1673ffffffffffffffffffffffffffffffffffffffff1681526020018281526020019350505050602060405180830381600087803b15801561167857600080fd5b505af115801561168c573d6000803e3d6000fd5b505050506040513d60208110156116a257600080fd5b810190808051906020019092919050505015156116be57600080fd5b8173ffffffffffffffffffffffffffffffffffffffff16600360008473ffffffffffffffffffffffffffffffffffffffff1673ffffffffffffffffffffffffffffffffffffffff16815260200190815260200160002060010160009054906101000a900473ffffffffffffffffffffffffffffffffffffffff1673ffffffffffffffffffffffffffffffffffffffff161415156117695761175f8785613463565b6117688261362f565b5b6117738285613677565b9050611837828a8a6040518083805190602001908083835b6020831015156117b0578051825260208201915060208101905060208303925061178b565b6001836020036101000a03801982511681845116808217855250505050505090500182805190602001908083835b60208310151561180357805182526020820191506020810190506020830392506117de565b6001836020036101000a0380198251168184511680821785525050505050509050019250505060405180910390208361374f565b61184182856137ba565b61184b8287613940565b6118578b8b8b8b613991565b896040518082805190602001908083835b60208310151561188d5780518252602082019150602081019050602083039250611868565b6001836020036101000a03801982511681845116808217855250505050505090500191505060405180910390207fc3a72c25806ee5ff17115b3cba40b0007e68a9bcc72c76e76496145ca1fae894898b86604051808060200180602001848152602001838103835286818151815260200191508051906020019080838360005b8381101561192857808201518184015260208101905061190d565b50505050905090810190601f1680156119555780820380516001836020036101000a031916815260200191505b50838103825285818151815260200191508051906020019080838360005b8381101561198e578082015181840152602081019050611973565b50505050905090810190601f1680156119bb5780820380516001836020036101000a031916815260200191505b509550505050505060405180910390a25050505050505050505050565b6060806000806000806119e961461b565b600360008b73ffffffffffffffffffffffffffffffffffffffff1673ffffffffffffffffffffffffffffffffffffffff16815260200190815260200160002091508160020160008a8a6040518083805190602001908083835b602083101515611a675780518252602082019150602081019050602083039250611a42565b6001836020036101000a03801982511681845116808217855250505050505090500182805190602001908083835b602083101515611aba5780518252602082019150602081019050602083039250611a95565b6001836020036101000a0380198251168184511680821785525050505050509050019250505060405180910390206000191660001916815260200190815260200160002060a06040519081016040529081600082018054600181600116156101000203166002900480601f016020809104026020016040519081016040528092919081815260200182805460018160011615610100020316600290048015611ba35780601f10611b7857610100808354040283529160200191611ba3565b820191906000526020600020905b815481529060010190602001808311611b8657829003601f168201915b50505050508152602001600182018054600181600116156101000203166002900480601f016020809104026020016040519081016040528092919081815260200182805460018160011615610100020316600290048015611c455780601f10611c1a57610100808354040283529160200191611c45565b820191906000526020600020905b815481529060010190602001808311611c2857829003601f168201915b5050505050815260200160028201548152602001600382015481526020016004820154600019166000191681525050905080600001518160200151826040015183606001518460800151849450839350965096509650965096505050939792965093509350565b6000806000809054906101000a900473ffffffffffffffffffffffffffffffffffffffff1673ffffffffffffffffffffffffffffffffffffffff163373ffffffffffffffffffffffffffffffffffffffff16141515611d0a57600080fd5b600160009054906101000a900473ffffffffffffffffffffffffffffffffffffffff1691508173ffffffffffffffffffffffffffffffffffffffff166370a08231306040518263ffffffff167c0100000000000000000000000000000000000000000000000000000000028152600401808273ffffffffffffffffffffffffffffffffffffffff1673ffffffffffffffffffffffffffffffffffffffff168152602001915050602060405180830381600087803b158015611dca57600080fd5b505af1158015611dde573d6000803e3d6000fd5b505050506040513d6020811015611df457600080fd5b810190808051906020019092919050505090508173ffffffffffffffffffffffffffffffffffffffff1663a9059cbb6000809054906101000a900473ffffffffffffffffffffffffffffffffffffffff16836040518363ffffffff167c0100000000000000000000000000000000000000000000000000000000028152600401808373ffffffffffffffffffffffffffffffffffffffff1673ffffffffffffffffffffffffffffffffffffffff16815260200182815260200192505050602060405180830381600087803b158015611ecb57600080fd5b505af1158015611edf573d6000803e3d6000fd5b505050506040513d6020811015611ef557600080fd5b8101908080519060200190929190505050507fbf2ed60bd5b5965d685680c01195c9514e4382e28e3a5a2d2d5244bf59411b938142604051808381526020018281526020019250505060405180910390a15050565b6003602052806000526040600020600091509050806000018054600181600116156101000203166002900480601f016020809104026020016040519081016040528092919081815260200182805460018160011615610100020316600290048015611ff65780601f10611fcb57610100808354040283529160200191611ff6565b820191906000526020600020905b815481529060010190602001808311611fd957829003601f168201915b5050505050908060010160009054906101000a900473ffffffffffffffffffffffffffffffffffffffff16905082565b60046020528160005260406000208181548110151561204157fe5b906000526020600020906005020160009150915050806000018054600181600116156101000203166002900480601f0160208091040260200160405190810160405280929190818152602001828054600181600116156101000203166002900480156120ee5780601f106120c3576101008083540402835291602001916120ee565b820191906000526020600020905b8154815290600101906020018083116120d157829003601f168201915b505050505090806001018054600181600116156101000203166002900480601f01602080910402602001604051908101604052809291908181526020018280546001816001161561010002031660029004801561218c5780601f106121615761010080835404028352916020019161218c565b820191906000526020600020905b81548152906001019060200180831161216f57829003601f168201915b5050505050908060020154908060030154908060040154905085565b60006121b261461b565b6000806000600360008b73ffffffffffffffffffffffffffffffffffffffff1673ffffffffffffffffffffffffffffffffffffffff16815260200190815260200160002094508460020160008a8a6040518083805190602001908083835b6020831015156122355780518252602082019150602081019050602083039250612210565b6001836020036101000a03801982511681845116808217855250505050505090500182805190602001908083835b6020831015156122885780518252602082019150602081019050602083039250612263565b6001836020036101000a0380198251168184511680821785525050505050509050019250505060405180910390206000191660001916815260200190815260200160002060a06040519081016040529081600082018054600181600116156101000203166002900480601f0160208091040260200160405190810160405280929190818152602001828054600181600116156101000203166002900480156123715780601f1061234657610100808354040283529160200191612371565b820191906000526020600020905b81548152906001019060200180831161235457829003601f168201915b50505050508152602001600182018054600181600116156101000203166002900480601f0160208091040260200160405190810160405280929190818152602001828054600181600116156101000203166002900480156124135780601f106123e857610100808354040283529160200191612413565b820191906000526020600020905b8154815290600101906020018083116123f657829003601f168201915b505050505081526020016002820154815260200160038201548152602001600482015460001916600019168152505093508973ffffffffffffffffffffffffffffffffffffffff168560010160009054906101000a900473ffffffffffffffffffffffffffffffffffffffff1673ffffffffffffffffffffffffffffffffffffffff161415156124a257600080fd5b88886040518083805190602001908083835b6020831015156124d957805182526020820191506020810190506020830392506124b4565b6001836020036101000a03801982511681845116808217855250505050505090500182805190602001908083835b60208310151561252c5780518252602082019150602081019050602083039250612507565b6001836020036101000a03801982511681845116808217855250505050505090500192505050604051809103902060001916846000015185602001516040518083805190602001908083835b60208310151561259d5780518252602082019150602081019050602083039250612578565b6001836020036101000a03801982511681845116808217855250505050505090500182805190602001908083835b6020831015156125f057805182526020820191506020810190506020830392506125cb565b6001836020036101000a0380198251168184511680821785525050505050509050019250505060405180910390206000191614151561262e57600080fd5b83606001518614151561264057600080fd5b612667606461265960328961341590919063ffffffff16565b61344d90919063ffffffff16565b9250339150600160009054906101000a900473ffffffffffffffffffffffffffffffffffffffff1673ffffffffffffffffffffffffffffffffffffffff166323b872dd8330866040518463ffffffff167c0100000000000000000000000000000000000000000000000000000000028152600401808473ffffffffffffffffffffffffffffffffffffffff1673ffffffffffffffffffffffffffffffffffffffff1681526020018373ffffffffffffffffffffffffffffffffffffffff1673ffffffffffffffffffffffffffffffffffffffff1681526020018281526020019350505050602060405180830381600087803b15801561276557600080fd5b505af1158015612779573d6000803e3d6000fd5b505050506040513d602081101561278f57600080fd5b810190808051906020019092919050505015156127ab57600080fd5b8173ffffffffffffffffffffffffffffffffffffffff16600360008473ffffffffffffffffffffffffffffffffffffffff1673ffffffffffffffffffffffffffffffffffffffff16815260200190815260200160002060010160009054906101000a900473ffffffffffffffffffffffffffffffffffffffff1673ffffffffffffffffffffffffffffffffffffffff161415156128565761284c8785613463565b6128558261362f565b5b6000600560008c73ffffffffffffffffffffffffffffffffffffffff1673ffffffffffffffffffffffffffffffffffffffff1681526020019081526020016000205414156128ac576128a78a613f09565b6128ba565b6128b98a87600003613940565b5b6128c48285613677565b9050612988828a8a6040518083805190602001908083835b60208310151561290157805182526020820191506020810190506020830392506128dc565b6001836020036101000a03801982511681845116808217855250505050505090500182805190602001908083835b602083101515612954578051825260208201915060208101905060208303925061292f565b6001836020036101000a0380198251168184511680821785525050505050509050019250505060405180910390208361374f565b61299282856137ba565b61299c8287613940565b6129a78a8a8a613f4f565b6129b18a82614488565b8173ffffffffffffffffffffffffffffffffffffffff167f7604b3a930e99a0c328eaee18c35e6f4e437a23c8d76a41767b1c85c59ef428b898b86604051808060200180602001848152602001838103835286818151815260200191508051906020019080838360005b83811015612a36578082015181840152602081019050612a1b565b50505050905090810190601f168015612a635780820380516001836020036101000a031916815260200191505b50838103825285818151815260200191508051906020019080838360005b83811015612a9c578082015181840152602081019050612a81565b50505050905090810190601f168015612ac95780820380516001836020036101000a031916815260200191505b509550505050505060405180910390a250505050505050505050565b60008660026000826040518082805190602001908083835b602083101515612b225780518252602082019150602081019050602083039250612afd565b6001836020036101000a03801982511681845116808217855250505050505090500191505060405180910390206000191660001916815260200190815260200160002060010160009054906101000a900473ffffffffffffffffffffffffffffffffffffffff1673ffffffffffffffffffffffffffffffffffffffff163373ffffffffffffffffffffffffffffffffffffffff16141515612c51576040517f08c379a00000000000000000000000000000000000000000000000000000000081526004018080602001828103825260238152602001807f4f6e6c7920636172206465616c6572206f776e65722063616e2061646420636181526020017f72732e000000000000000000000000000000000000000000000000000000000081525060400191505060405180910390fd5b60026000896040518082805190602001908083835b602083101515612c8b5780518252602082019150602081019050602083039250612c66565b6001836020036101000a038019825116818451168082178552505050505050905001915050604051809103902060001916600019168152602001908152602001600020915060a060405190810160405280888152602001878152602001868152602001858152602001846000191681525082600201600089896040518083805190602001908083835b602083101515612d395780518252602082019150602081019050602083039250612d14565b6001836020036101000a03801982511681845116808217855250505050505090500182805190602001908083835b602083101515612d8c5780518252602082019150602081019050602083039250612d67565b6001836020036101000a038019825116818451168082178552505050505050905001925050506040518091039020600019166000191681526020019081526020016000206000820151816000019080519060200190612dec92919061464e565b506020820151816001019080519060200190612e0992919061464e565b50604082015181600201556060820151816003015560808201518160040190600019169055905050856040518082805190602001908083835b602083101515612e675780518252602082019150602081019050602083039250612e42565b6001836020036101000a0380198251168184511680821785525050505050509050019150506040518091039020876040518082805190602001908083835b602083101515612eca5780518252602082019150602081019050602083039250612ea5565b6001836020036101000a0380198251168184511680821785525050505050509050019150506040518091039020896040518082805190602001908083835b602083101515612f2d5780518252602082019150602081019050602083039250612f08565b6001836020036101000a03801982511681845116808217855250505050505090500191505060405180910390207fc5f4a98ca16d87e1066b9989b648dcf730e357b5b9a7cd3b035badcade0c90b0876040518082815260200191505060405180910390a45050505050505050565b6000809054906101000a900473ffffffffffffffffffffffffffffffffffffffff1673ffffffffffffffffffffffffffffffffffffffff163373ffffffffffffffffffffffffffffffffffffffff16141515612ff657600080fd5b6000809054906101000a900473ffffffffffffffffffffffffffffffffffffffff1673ffffffffffffffffffffffffffffffffffffffff167ff8df31144d9c2f0f6b59d69b8b98abd5459d07f2742c4df920b25aae33c6482060405160405180910390a260008060006101000a81548173ffffffffffffffffffffffffffffffffffffffff021916908373ffffffffffffffffffffffffffffffffffffffff160217905550565b600060026000836040518082805190602001908083835b6020831015156130d957805182526020820191506020810190506020830392506130b4565b6001836020036101000a03801982511681845116808217855250505050505090500191505060405180910390206000191660001916815260200190815260200160002060010160009054906101000a900473ffffffffffffffffffffffffffffffffffffffff169050919050565b6000809054906101000a900473ffffffffffffffffffffffffffffffffffffffff1681565b60408051908101604052808281526020013373ffffffffffffffffffffffffffffffffffffffff1681525060026000836040518082805190602001908083835b6020831015156131d157805182526020820191506020810190506020830392506131ac565b6001836020036101000a038019825116818451168082178552505050505050905001915050604051809103902060001916600019168152602001908152602001600020600082015181600001908051906020019061323092919061464e565b5060208201518160010160006101000a81548173ffffffffffffffffffffffffffffffffffffffff021916908373ffffffffffffffffffffffffffffffffffffffff1602179055509050503373ffffffffffffffffffffffffffffffffffffffff16816040518082805190602001908083835b6020831015156132c857805182526020820191506020810190506020830392506132a3565b6001836020036101000a03801982511681845116808217855250505050505090500191505060405180910390207fe3cca2ce3d2785c3d6c43c214550ac87ca0f1591576943c30019a72f00cb26c160405160405180910390a350565b60056020528060005260406000206000915090505481565b6000600460008373ffffffffffffffffffffffffffffffffffffffff1673ffffffffffffffffffffffffffffffffffffffff168152602001908152602001600020805490509050919050565b600160009054906101000a900473ffffffffffffffffffffffffffffffffffffffff1681565b6000809054906101000a900473ffffffffffffffffffffffffffffffffffffffff1673ffffffffffffffffffffffffffffffffffffffff163373ffffffffffffffffffffffffffffffffffffffff1614151561340957600080fd5b61341281614521565b50565b6000808314156134285760009050613447565b818302905081838281151561343957fe5b0414151561344357fe5b8090505b92915050565b6000818381151561345a57fe5b04905092915050565b600060408051908101604052808481526020013373ffffffffffffffffffffffffffffffffffffffff16815250600360003373ffffffffffffffffffffffffffffffffffffffff1673ffffffffffffffffffffffffffffffffffffffff16815260200190815260200160002060008201518160000190805190602001906134eb92919061464e565b5060208201518160010160006101000a81548173ffffffffffffffffffffffffffffffffffffffff021916908373ffffffffffffffffffffffffffffffffffffffff160217905550905050600360003373ffffffffffffffffffffffffffffffffffffffff1673ffffffffffffffffffffffffffffffffffffffff16815260200190815260200160002090503373ffffffffffffffffffffffffffffffffffffffff167f52141a37ee2091d9703f0137cc4d371eb10c8bf412adb05b51d09762c9d3a4bc846040518080602001828103825283818151815260200191508051906020019080838360005b838110156135f05780820151818401526020810190506135d5565b50505050905090810190601f16801561361d5780820380516001836020036101000a031916815260200191505b509250505060405180910390a2505050565b6000600560008373ffffffffffffffffffffffffffffffffffffffff1673ffffffffffffffffffffffffffffffffffffffff1681526020019081526020016000208190555050565b60006001600460008573ffffffffffffffffffffffffffffffffffffffff1673ffffffffffffffffffffffffffffffffffffffff1681526020019081526020016000208390806001815401808255809150509060018203906000526020600020906005020160009091929091909150600082015181600001908051906020019061370292919061464e565b50602082015181600101908051906020019061371f92919061464e565b50604082015181600201556060820151816003015560808201518160040190600019169055505003905092915050565b6000600360008573ffffffffffffffffffffffffffffffffffffffff1673ffffffffffffffffffffffffffffffffffffffff16815260200190815260200160002090508181600301600085600019166000191681526020019081526020016000208190555050505050565b6000600360008473ffffffffffffffffffffffffffffffffffffffff1673ffffffffffffffffffffffffffffffffffffffff168152602001908152602001600020905081816002016000846000015185602001516040518083805190602001908083835b602083101515613843578051825260208201915060208101905060208303925061381e565b6001836020036101000a03801982511681845116808217855250505050505090500182805190602001908083835b6020831015156138965780518252602082019150602081019050602083039250613871565b6001836020036101000a0380198251168184511680821785525050505050509050019250505060405180910390206000191660001916815260200190815260200160002060008201518160000190805190602001906138f692919061464e565b50602082015181600101908051906020019061391392919061464e565b50604082015181600201556060820151816003015560808201518160040190600019169055905050505050565b80600560008473ffffffffffffffffffffffffffffffffffffffff1673ffffffffffffffffffffffffffffffffffffffff168152602001908152602001600020600082825401925050819055505050565b600061399b61461b565b60026000866040518082805190602001908083835b6020831015156139d557805182526020820191506020810190506020830392506139b0565b6001836020036101000a038019825116818451168082178552505050505050905001915050604051809103902060001916600019168152602001908152602001600020915081600201600085856040518083805190602001908083835b602083101515613a575780518252602082019150602081019050602083039250613a32565b6001836020036101000a03801982511681845116808217855250505050505090500182805190602001908083835b602083101515613aaa5780518252602082019150602081019050602083039250613a85565b6001836020036101000a0380198251168184511680821785525050505050509050019250505060405180910390206000191660001916815260200190815260200160002060a06040519081016040529081600082018054600181600116156101000203166002900480601f016020809104026020016040519081016040528092919081815260200182805460018160011615610100020316600290048015613b935780601f10613b6857610100808354040283529160200191613b93565b820191906000526020600020905b815481529060010190602001808311613b7657829003601f168201915b50505050508152602001600182018054600181600116156101000203166002900480601f016020809104026020016040519081016040528092919081815260200182805460018160011615610100020316600290048015613c355780601f10613c0a57610100808354040283529160200191613c35565b820191906000526020600020905b815481529060010190602001808311613c1857829003601f168201915b5050505050815260200160028201548152602001600382015481526020016004820154600019166000191681525050905083836040518083805190602001908083835b602083101515613c9d5780518252602082019150602081019050602083039250613c78565b6001836020036101000a03801982511681845116808217855250505050505090500182805190602001908083835b602083101515613cf05780518252602082019150602081019050602083039250613ccb565b6001836020036101000a03801982511681845116808217855250505050505090500192505050604051809103902060001916816000015182602001516040518083805190602001908083835b602083101515613d615780518252602082019150602081019050602083039250613d3c565b6001836020036101000a03801982511681845116808217855250505050505090500182805190602001908083835b602083101515613db45780518252602082019150602081019050602083039250613d8f565b6001836020036101000a03801982511681845116808217855250505050505090500192505050604051809103902060001916141515613df257600080fd5b81600201600085856040518083805190602001908083835b602083101515613e2f5780518252602082019150602081019050602083039250613e0a565b6001836020036101000a03801982511681845116808217855250505050505090500182805190602001908083835b602083101515613e825780518252602082019150602081019050602083039250613e5d565b6001836020036101000a0380198251168184511680821785525050505050509050019250505060405180910390206000191660001916815260200190815260200160002060008082016000613ed791906146ce565b600182016000613ee791906146ce565b6002820160009055600382016000905560048201600090555050505050505050565b600560008273ffffffffffffffffffffffffffffffffffffffff1673ffffffffffffffffffffffffffffffffffffffff1681526020019081526020016000206000905550565b6000613f5961461b565b600360008673ffffffffffffffffffffffffffffffffffffffff1673ffffffffffffffffffffffffffffffffffffffff168152602001908152602001600020915081600201600085856040518083805190602001908083835b602083101515613fd75780518252602082019150602081019050602083039250613fb2565b6001836020036101000a03801982511681845116808217855250505050505090500182805190602001908083835b60208310151561402a5780518252602082019150602081019050602083039250614005565b6001836020036101000a0380198251168184511680821785525050505050509050019250505060405180910390206000191660001916815260200190815260200160002060a06040519081016040529081600082018054600181600116156101000203166002900480601f0160208091040260200160405190810160405280929190818152602001828054600181600116156101000203166002900480156141135780601f106140e857610100808354040283529160200191614113565b820191906000526020600020905b8154815290600101906020018083116140f657829003601f168201915b50505050508152602001600182018054600181600116156101000203166002900480601f0160208091040260200160405190810160405280929190818152602001828054600181600116156101000203166002900480156141b55780601f1061418a576101008083540402835291602001916141b5565b820191906000526020600020905b81548152906001019060200180831161419857829003601f168201915b5050505050815260200160028201548152602001600382015481526020016004820154600019166000191681525050905083836040518083805190602001908083835b60208310151561421d57805182526020820191506020810190506020830392506141f8565b6001836020036101000a03801982511681845116808217855250505050505090500182805190602001908083835b602083101515614270578051825260208201915060208101905060208303925061424b565b6001836020036101000a03801982511681845116808217855250505050505090500192505050604051809103902060001916816000015182602001516040518083805190602001908083835b6020831015156142e157805182526020820191506020810190506020830392506142bc565b6001836020036101000a03801982511681845116808217855250505050505090500182805190602001908083835b602083101515614334578051825260208201915060208101905060208303925061430f565b6001836020036101000a0380198251168184511680821785525050505050509050019250505060405180910390206000191614151561437257600080fd5b81600201600085856040518083805190602001908083835b6020831015156143af578051825260208201915060208101905060208303925061438a565b6001836020036101000a03801982511681845116808217855250505050505090500182805190602001908083835b60208310151561440257805182526020820191506020810190506020830392506143dd565b6001836020036101000a038019825116818451168082178552505050505050905001925050506040518091039020600019166000191681526020019081526020016000206000808201600061445791906146ce565b60018201600061446791906146ce565b60028201600090556003820160009055600482016000905550505050505050565b600460008373ffffffffffffffffffffffffffffffffffffffff1673ffffffffffffffffffffffffffffffffffffffff168152602001908152602001600020818154811015156144d457fe5b9060005260206000209060050201600080820160006144f391906146ce565b60018201600061450391906146ce565b60028201600090556003820160009055600482016000905550505050565b600073ffffffffffffffffffffffffffffffffffffffff168173ffffffffffffffffffffffffffffffffffffffff161415151561455d57600080fd5b8073ffffffffffffffffffffffffffffffffffffffff166000809054906101000a900473ffffffffffffffffffffffffffffffffffffffff1673ffffffffffffffffffffffffffffffffffffffff167f8be0079c531659141344cd1fd0a4f28419497f9722a3daafe3b4186f6b6457e060405160405180910390a3806000806101000a81548173ffffffffffffffffffffffffffffffffffffffff021916908373ffffffffffffffffffffffffffffffffffffffff16021790555050565b60a06040519081016040528060608152602001606081526020016000815260200160008152602001600080191681525090565b828054600181600116156101000203166002900490600052602060002090601f016020900481019282601f1061468f57805160ff19168380011785556146bd565b828001600101855582156146bd579182015b828111156146bc5782518255916020019190600101906146a1565b5b5090506146ca9190614716565b5090565b50805460018160011615610100020316600290046000825580601f106146f45750614713565b601f0160209004906000526020600020908101906147129190614716565b5b50565b61473891905b8082111561473457600081600090555060010161471c565b5090565b905600a165627a7a72305820f55d50aac4003908fdd7f3b676d113edd4c79858d0100510890a1fdcc5bc312d0029",
  "source": "pragma solidity ^0.4.25;\n\nimport \"openzeppelin-solidity/contracts/ownership/Ownable.sol\";\nimport \"openzeppelin-solidity/contracts/token/ERC20/ERC20.sol\";\nimport \"openzeppelin-solidity/contracts/math/SafeMath.sol\";\n\ncontract CryptoCars is Ownable {\n    /** LIBRARIES **/\n\n    /// Importing SafeMath library from OpenZeppelin framework.\n    using SafeMath for uint;\n\n    /** EVENTS **/\n\n    /// Event is fired, when a new car dealer is created.\n    event CreatedCarDealer(string indexed carDealer, address indexed owner);\n\n    /// Event is fired when a new car owner is created.\n    event CreatedCarOwner(address indexed carOwner, string name);\n\n    /// Event is fired, when a new car is added to the specified dealer.\n    event AddedCarToDealer(string indexed carDealer, string indexed brand, string indexed model, uint salePrice);\n\n    /// Event is fired, when a car is bought from dealer.\n    event BoughtCarFromDealer(string indexed carDealer, string model, string brand, uint boughtPrice);\n\n    /// Event is fired, when a car is bought from dealer.\n    event BoughtCarFromOwner(address indexed carOwner, string model, string brand, uint boughtPrice);\n\n    /// Event is fired, when ownership and permissions over\n    /// the car is removed from the previous car dealer.\n    event RemovedCarFromDealer(address indexed carDealerAddress, string indexed carDealer, string brand, string model);\n\n    /// Event is fired, when ownership and permissions over\n    /// the car is removed from the previous car owner.\n    event RemovedCarFromDealer(address indexed carOwnerAddress, string brand, string model);\n\n    /// Event is fired, when the contract owner asks to\n    /// withdraw his received funds.\n     event Withdrawal(uint256 amount, uint256 timestamp);\n    /** DATA TYPES **/\n\n    /// This is the ERC-20 token contract address used to\n    /// interact within the contract\n    address public cryptoCarsToken;\n\n    /// Describes car entity.\n    struct Car {\n        string brand;\n        string model;\n        uint manufacturerPrice;\n        uint salePrice;\n        // Associated picture hash coming from IPFS\n        bytes32 pictureHash;\n    }\n\n    /// Describes car dealer entity.\n    struct CarDealer {\n        string name;\n        address addr;\n        mapping(bytes32 => Car) cars;\n    }\n\n    // Describes car owner entity.\n    struct CarOwner {\n        string name;\n        address addr;\n        mapping(bytes32 => Car) cars;\n        mapping(bytes32 => uint) carsIndexes;\n    }\n\n    /** STORAGES **/\n\n    /// Storing all car dealers.\n    mapping(bytes32 => CarDealer) private carDealers;\n\n    /// Storing all car owners.\n    mapping(address => CarOwner) public carOwners;\n\n    /// Storing all car owner cars.\n    mapping(address => Car[]) public carOwnerCars;\n\n    /// Storing money spent by car owner for his bought cars.\n    mapping(address => uint) public carOwnerMoneySpent;\n\n    /** CONSTRUCTOR **/\n    constructor(address _cryptoCarsTokenContract) {\n        cryptoCarsToken = _cryptoCarsTokenContract;\n    }\n\n    /** MODIFIERS **/\n\n    /// Used to restrict non-owner of car dealer to adding car to it.\n    modifier onlyCarDealerOwner(string _carDealer) {\n        require(msg.sender == carDealers[keccak256(_carDealer)].addr, \"Only car dealer owner can add cars.\");\n        _;\n    }\n\n    /** FUNCTIONS **/\n\n    /// Creates CarDealer object and add it to the mapping storer.\n    function createCarDealer(string _name) public {\n        carDealers[keccak256(_name)] = CarDealer(_name, msg.sender);\n\n        // Event call\n        emit CreatedCarDealer(_name, msg.sender);\n    }\n\n    /// Creates CarOwner object and pushes it to the mapping.\n    function _createCarOwner(string _name, Car _car) private {\n        carOwners[msg.sender] = CarOwner(_name, msg.sender);\n        CarOwner storage carOwner = carOwners[msg.sender];\n\n        // Event call\n        emit CreatedCarOwner(msg.sender, _name);\n    }\n\n    /// The function adds a car to the specified car dealer.\n    /// NOTE: Function prevents any others than car dealer owner\n    /// add car.\n    function addCarToDealer(\n        string _carDealer,\n        string _brand,\n        string _model,\n        uint _manufacturerPrice,\n        uint _salePrice,\n        bytes32 _pictureHash\n    )\n        public\n        onlyCarDealerOwner (_carDealer)\n    {\n        CarDealer storage carDealer = carDealers[keccak256(_carDealer)];\n        carDealer.cars[keccak256(_brand, _model)] = Car({\n            brand: _brand,\n            model: _model,\n            manufacturerPrice: _manufacturerPrice,\n            salePrice: _salePrice,\n            pictureHash: _pictureHash\n        });\n\n        // Event call\n        emit AddedCarToDealer(_carDealer, _brand, _model, _salePrice);\n    }\n\n    /// The function adds a car on specified address\n    /// into the public carOwnerCars mapping.\n    function _addCarToCarOwnerCarsMapping(address _carOwnerAddress, Car _car) private {\n        CarOwner storage carOwner = carOwners[_carOwnerAddress];\n        carOwner.cars[keccak256(_car.brand, _car.model)] = _car;\n    }\n\n    /// The functions adds car index to the car owner,\n    /// to keep track of his cars.\n    function _addRecordToCarOwnerCarsIndexesMapping(address _carOwnerAddress, bytes32 _key, uint _carIndex) private {\n        CarOwner storage carOwner = carOwners[_carOwnerAddress];\n        carOwner.carsIndexes[_key] = _carIndex;\n    }\n\n    /// The function creates new mapping record\n    /// with given key and initial empty value.\n    function _addRecordToCarOwnerMoneySpentMapping(address _carOwnerAddress) private {\n        carOwnerMoneySpent[_carOwnerAddress] = 0;\n    }\n\n    /// The function pushes car and his car owner\n    /// to the public mapping, where all cars\n    /// of car owners are stored and any user\n    /// have access to this view with information.\n    function _pushCarToCarOwnerCarsMappingArray(address _carOwnerAddress, Car _car) private returns (uint) {\n        return carOwnerCars[_carOwnerAddress].push(_car) - 1;\n    }\n\n    /// The function updates money spent amount\n    /// of the given car owner.\n    function _updateCarOwnerMoneySpentMappingValue(address _carOwnerAddress, uint amount) private {\n        carOwnerMoneySpent[_carOwnerAddress] += amount;\n    }\n\n    /// The function deletes specific car from CarDealer object.\n    function _removeCarFromDealer(\n        address _carDealerAddress,\n        string _carDealer,\n        string _brand,\n        string _model\n    )\n        private\n    {\n        CarDealer storage carDealer = carDealers[keccak256(_carDealer)];\n        Car memory car = carDealer.cars[keccak256(_brand, _model)];\n        require(keccak256(car.brand, car.model) == keccak256(_brand, _model));\n\n        delete carDealer.cars[keccak256(_brand, _model)];\n    }\n\n    /// The function deletes specific car from CarOwner object.\n    function _removeCarFromOwner(address _carOwnerAddress, string _brand, string _model) private {\n        CarOwner storage carOwner = carOwners[_carOwnerAddress];\n        Car memory car = carOwner.cars[keccak256(_brand, _model)];\n        require(keccak256(car.brand, car.model) == keccak256(_brand, _model));\n\n        delete carOwner.cars[keccak256(_brand, _model)];\n    }\n\n    /// The function removes car of car owner\n    /// from the public mapping, where all\n    /// cars of car owners are stored.\n    function _removeCarFromCarOwnerCarsMapping(address _carOwnerAddress, uint _index) private{\n        delete carOwnerCars[_carOwnerAddress][_index];\n    }\n\n    /// The function removes record from mapping.\n    function _removeFromCarOwnerMoneySpentMapping(address _carOwnerAddress) private {\n        delete carOwnerMoneySpent[_carOwnerAddress];\n    }\n\n    /// The function presents the address of passed as argument car dealer.\n    function getCarDealerAddress(string _carDealer) public view returns (address) {\n        return carDealers[keccak256(_carDealer)].addr;\n    }\n\n    /// The function presents information about the specific car.\n    function getCarByDealer(\n        string _carDealer,\n        string _brand,\n        string _model\n    )\n        public\n        view\n        returns (\n        string brand,\n        string model,\n        uint manufacturerPrice,\n        uint salePrice,\n        bytes32 pictureHash\n    ) {\n        CarDealer storage carDealer = carDealers[keccak256(_carDealer)];\n        Car memory car = carDealer.cars[keccak256(_brand, _model)];\n\n        return (car.brand, car.model, car.manufacturerPrice, car.salePrice, car.pictureHash);\n    }\n\n    /// The function presents information about the specific car owned by person.\n    function getCarByOwner(\n        address _carOwner,\n        string _brand,\n        string _model\n    )\n        public\n        view\n        returns (\n        string brand,\n        string model,\n        uint manufacturerPrice,\n        uint salePrice,\n        bytes32 pictureHash\n    ) {\n        CarOwner storage carOwner = carOwners[_carOwner];\n        Car memory car = carOwner.cars[keccak256(_brand, _model)];\n\n        return (car.brand, car.model, car.manufacturerPrice, car.salePrice, car.pictureHash);\n    }\n\n    // The function presents number of cars, that car owner contains.\n    function getCarOwnerCarsNumber(address _carOwner) public view returns (uint256) {\n        return carOwnerCars[_carOwner].length;\n    }\n\n    /// The function gives the opportunity\n    /// to buy a car from specific dealer.\n    /// You buying a car by sending the exact\n    /// same amount of car sale price(not manufacturer).\n    /// NOTE: %50 of bought car price goes\n    /// to the contract as reward.\n    function buyCarFromDealer(\n        address _carDealerAddress,\n        string _carDealer,\n        string _brand,\n        string _model,\n        string _buyerName,\n        uint tokens\n    )\n        public\n    {\n        CarDealer storage carDealer = carDealers[keccak256(_carDealer)];\n        Car memory car = carDealer.cars[keccak256(_brand, _model)];\n        require(carDealer.addr == _carDealerAddress);\n        require(keccak256(car.brand, car.model) == keccak256(_brand, _model));\n        require(tokens == car.salePrice);\n        uint priceToSent = tokens.mul(50).div(100);\n        address buyerAddress = msg.sender;\n\n        require(ERC20(cryptoCarsToken).transferFrom(buyerAddress, address(this), priceToSent));\n\n        if (carOwners[buyerAddress].addr != buyerAddress ) {\n            _createCarOwner(_buyerName, car);\n            _addRecordToCarOwnerMoneySpentMapping(buyerAddress);\n        }\n\n        uint indexOfCar = _pushCarToCarOwnerCarsMappingArray(buyerAddress, car);\n        _addRecordToCarOwnerCarsIndexesMapping(buyerAddress, keccak256(_brand, _model), indexOfCar);\n        _addCarToCarOwnerCarsMapping(buyerAddress, car);\n        _updateCarOwnerMoneySpentMappingValue(buyerAddress,tokens);\n        _removeCarFromDealer(_carDealerAddress, _carDealer, _brand, _model);\n\n        // Event call\n        emit BoughtCarFromDealer(_carDealer, _model, _brand, priceToSent);\n    }\n\n    /// The function gives the opportunity\n    /// to buy a car from specific dealer.\n    /// You buying a car by sending the exact\n    /// same amount of car sale price(not manufacturer).\n    /// NOTE: %50 of bought car price goes\n    /// to the contract as reward.\n    function buyCarFromOwner(\n        address _carOwnerAddress,\n        string _brand,\n        string _model,\n        string _buyerName,\n        uint tokens\n    )\n        public\n    {\n        CarOwner storage carOwner = carOwners[_carOwnerAddress];\n        Car memory car = carOwner.cars[keccak256(_brand, _model)];\n        require(carOwner.addr == _carOwnerAddress);\n        require(keccak256(car.brand, car.model) == keccak256(_brand, _model));\n        require(tokens == car.salePrice);\n        uint priceToSent = tokens.mul(50).div(100);\n        address buyerAddress = msg.sender;\n\n        require(ERC20(cryptoCarsToken).transferFrom(buyerAddress, address(this), priceToSent));\n\n        if (carOwners[buyerAddress].addr != buyerAddress ) {\n             _createCarOwner(_buyerName, car);\n             _addRecordToCarOwnerMoneySpentMapping(buyerAddress);\n        }\n\n        if (carOwnerMoneySpent[_carOwnerAddress] == 0) {\n            _removeFromCarOwnerMoneySpentMapping(_carOwnerAddress);\n        } else {\n            _updateCarOwnerMoneySpentMappingValue(_carOwnerAddress, -tokens);\n        }\n\n        uint indexOfCar = _pushCarToCarOwnerCarsMappingArray(buyerAddress, car);\n        _addRecordToCarOwnerCarsIndexesMapping(buyerAddress, keccak256(_brand, _model), indexOfCar);\n        _addCarToCarOwnerCarsMapping(buyerAddress, car);\n        _updateCarOwnerMoneySpentMappingValue(buyerAddress, tokens);\n        _removeCarFromOwner(_carOwnerAddress, _brand, _model);\n        _removeCarFromCarOwnerCarsMapping(_carOwnerAddress, indexOfCar);\n\n        // Event call\n        emit BoughtCarFromOwner(buyerAddress, _model, _brand, priceToSent);\n    }\n\n    /// The function sends to the owner of the contract\n    /// received amount of rewards.\n    /// NOTE: Only contract owner can use this function.\n    function withdraw() public onlyOwner() {\n        ERC20 cryptoCarsTokenContract = ERC20(cryptoCarsToken);\n        uint256 balance = cryptoCarsTokenContract.balanceOf(address(this));\n\n         cryptoCarsTokenContract.transfer(owner, balance);\n\n         emit Withdrawal(balance, now);\n    }\n}\n",
  "sourcePath": "/home/iliyan/Documents/Projects/Blockchain/limeacad_homeworks/cryptocars/contracts/CryptoCars.sol",
  "compiler": {
    "name": "solc",
    "version": "0.4.25+commit.59dbf8f1.Emscripten.clang"
  },
  "schemaVersion": "0.9.8",
  "updatedAt": "2018-11-09T15:29:32.655Z"
}